{
  "abi": [
    {
      "inputs": [],
      "stateMutability": "nonpayable",
      "type": "constructor"
    },
    {
      "inputs": [],
      "name": "owner",
      "outputs": [
        {
          "internalType": "address",
          "name": "",
          "type": "address"
        }
      ],
      "stateMutability": "view",
      "type": "function"
    },
    {
      "inputs": [
        {
          "internalType": "uint256",
          "name": "primeMax",
          "type": "uint256"
        }
      ],
      "name": "roEvm",
      "outputs": [
        {
          "internalType": "uint256",
          "name": "",
          "type": "uint256"
        }
      ],
      "stateMutability": "nonpayable",
      "type": "function"
    }
  ],
  "evm": {
    "bytecode": {
      "linkReferences": {},
      "object": "608060405234801561001057600080fd5b50336000806101000a81548173ffffffffffffffffffffffffffffffffffffffff021916908373ffffffffffffffffffffffffffffffffffffffff160217905550610810806100606000396000f3fe608060405234801561001057600080fd5b50600436106100365760003560e01c80638da5cb5b1461003b578063bcdea31714610059575b600080fd5b610043610089565b6040516100509190610346565b60405180910390f35b610073600480360381019061006e919061039c565b6100ad565b60405161008091906103d8565b60405180910390f35b60008054906101000a900473ffffffffffffffffffffffffffffffffffffffff1681565b60008060009054906101000a900473ffffffffffffffffffffffffffffffffffffffff1673ffffffffffffffffffffffffffffffffffffffff163373ffffffffffffffffffffffffffffffffffffffff161461013e576040517f08c379a000000000000000000000000000000000000000000000000000000000815260040161013590610450565b60405180910390fd5b600080600290505b838111610184576101568161018e565b801561016757506101668161021d565b5b15610170578091505b60018161017d919061049f565b9050610146565b5080915050919050565b6000600282036101a15760019050610218565b6001821115806101bd575060006002836101bb9190610524565b145b156101cb5760009050610218565b6000600390505b6101db836102a8565b811161021257600081846101ef9190610524565b036101fe576000915050610218565b60028161020b919061049f565b90506101d2565b50600190505b919050565b60006002820361023057600190506102a3565b600060018360026102419190610688565b61024b91906106d3565b90506000600490506000600390505b8481116102995782600283846102709190610707565b61027a91906106d3565b6102849190610524565b9150808061029190610761565b91505061025a565b5060008114925050505b919050565b60008060026001846102ba919061049f565b6102c491906107a9565b90508291505b818110156102ff5780915060028182856102e491906107a9565b6102ee919061049f565b6102f891906107a9565b90506102ca565b50919050565b600073ffffffffffffffffffffffffffffffffffffffff82169050919050565b600061033082610305565b9050919050565b61034081610325565b82525050565b600060208201905061035b6000830184610337565b92915050565b600080fd5b6000819050919050565b61037981610366565b811461038457600080fd5b50565b60008135905061039681610370565b92915050565b6000602082840312156103b2576103b1610361565b5b60006103c084828501610387565b91505092915050565b6103d281610366565b82525050565b60006020820190506103ed60008301846103c9565b92915050565b600082825260208201905092915050565b7f556e617574686f72697a65640000000000000000000000000000000000000000600082015250565b600061043a600c836103f3565b915061044582610404565b602082019050919050565b600060208201905081810360008301526104698161042d565b9050919050565b7f4e487b7100000000000000000000000000000000000000000000000000000000600052601160045260246000fd5b60006104aa82610366565b91506104b583610366565b9250827fffffffffffffffffffffffffffffffffffffffffffffffffffffffffffffffff038211156104ea576104e9610470565b5b828201905092915050565b7f4e487b7100000000000000000000000000000000000000000000000000000000600052601260045260246000fd5b600061052f82610366565b915061053a83610366565b92508261054a576105496104f5565b5b828206905092915050565b60008160011c9050919050565b6000808291508390505b60018511156105ac5780860481111561058857610587610470565b5b60018516156105975780820291505b80810290506105a585610555565b945061056c565b94509492505050565b6000826105c55760019050610681565b816105d35760009050610681565b81600181146105e957600281146105f357610622565b6001915050610681565b60ff84111561060557610604610470565b5b8360020a91508482111561061c5761061b610470565b5b50610681565b5060208310610133831016604e8410600b84101617156106575782820a90508381111561065257610651610470565b5b610681565b6106648484846001610562565b9250905081840481111561067b5761067a610470565b5b81810290505b9392505050565b600061069382610366565b915061069e83610366565b92506106cb7fffffffffffffffffffffffffffffffffffffffffffffffffffffffffffffffff84846105b5565b905092915050565b60006106de82610366565b91506106e983610366565b9250828210156106fc576106fb610470565b5b828203905092915050565b600061071282610366565b915061071d83610366565b9250817fffffffffffffffffffffffffffffffffffffffffffffffffffffffffffffffff048311821515161561075657610755610470565b5b828202905092915050565b600061076c82610366565b91507fffffffffffffffffffffffffffffffffffffffffffffffffffffffffffffffff820361079e5761079d610470565b5b600182019050919050565b60006107b482610366565b91506107bf83610366565b9250826107cf576107ce6104f5565b5b82820490509291505056fea2646970667358221220ebbc0d5e245c313778b2136ecce64212e6e8d7e29baa83e982ea499462294c4964736f6c634300080d0033",
      "opcodes": "PUSH1 0x80 PUSH1 0x40 MSTORE CALLVALUE DUP1 ISZERO PUSH2 0x10 JUMPI PUSH1 0x0 DUP1 REVERT JUMPDEST POP CALLER PUSH1 0x0 DUP1 PUSH2 0x100 EXP DUP2 SLOAD DUP2 PUSH20 0xFFFFFFFFFFFFFFFFFFFFFFFFFFFFFFFFFFFFFFFF MUL NOT AND SWAP1 DUP4 PUSH20 0xFFFFFFFFFFFFFFFFFFFFFFFFFFFFFFFFFFFFFFFF AND MUL OR SWAP1 SSTORE POP PUSH2 0x810 DUP1 PUSH2 0x60 PUSH1 0x0 CODECOPY PUSH1 0x0 RETURN INVALID PUSH1 0x80 PUSH1 0x40 MSTORE CALLVALUE DUP1 ISZERO PUSH2 0x10 JUMPI PUSH1 0x0 DUP1 REVERT JUMPDEST POP PUSH1 0x4 CALLDATASIZE LT PUSH2 0x36 JUMPI PUSH1 0x0 CALLDATALOAD PUSH1 0xE0 SHR DUP1 PUSH4 0x8DA5CB5B EQ PUSH2 0x3B JUMPI DUP1 PUSH4 0xBCDEA317 EQ PUSH2 0x59 JUMPI JUMPDEST PUSH1 0x0 DUP1 REVERT JUMPDEST PUSH2 0x43 PUSH2 0x89 JUMP JUMPDEST PUSH1 0x40 MLOAD PUSH2 0x50 SWAP2 SWAP1 PUSH2 0x346 JUMP JUMPDEST PUSH1 0x40 MLOAD DUP1 SWAP2 SUB SWAP1 RETURN JUMPDEST PUSH2 0x73 PUSH1 0x4 DUP1 CALLDATASIZE SUB DUP2 ADD SWAP1 PUSH2 0x6E SWAP2 SWAP1 PUSH2 0x39C JUMP JUMPDEST PUSH2 0xAD JUMP JUMPDEST PUSH1 0x40 MLOAD PUSH2 0x80 SWAP2 SWAP1 PUSH2 0x3D8 JUMP JUMPDEST PUSH1 0x40 MLOAD DUP1 SWAP2 SUB SWAP1 RETURN JUMPDEST PUSH1 0x0 DUP1 SLOAD SWAP1 PUSH2 0x100 EXP SWAP1 DIV PUSH20 0xFFFFFFFFFFFFFFFFFFFFFFFFFFFFFFFFFFFFFFFF AND DUP2 JUMP JUMPDEST PUSH1 0x0 DUP1 PUSH1 0x0 SWAP1 SLOAD SWAP1 PUSH2 0x100 EXP SWAP1 DIV PUSH20 0xFFFFFFFFFFFFFFFFFFFFFFFFFFFFFFFFFFFFFFFF AND PUSH20 0xFFFFFFFFFFFFFFFFFFFFFFFFFFFFFFFFFFFFFFFF AND CALLER PUSH20 0xFFFFFFFFFFFFFFFFFFFFFFFFFFFFFFFFFFFFFFFF AND EQ PUSH2 0x13E JUMPI PUSH1 0x40 MLOAD PUSH32 0x8C379A000000000000000000000000000000000000000000000000000000000 DUP2 MSTORE PUSH1 0x4 ADD PUSH2 0x135 SWAP1 PUSH2 0x450 JUMP JUMPDEST PUSH1 0x40 MLOAD DUP1 SWAP2 SUB SWAP1 REVERT JUMPDEST PUSH1 0x0 DUP1 PUSH1 0x2 SWAP1 POP JUMPDEST DUP4 DUP2 GT PUSH2 0x184 JUMPI PUSH2 0x156 DUP2 PUSH2 0x18E JUMP JUMPDEST DUP1 ISZERO PUSH2 0x167 JUMPI POP PUSH2 0x166 DUP2 PUSH2 0x21D JUMP JUMPDEST JUMPDEST ISZERO PUSH2 0x170 JUMPI DUP1 SWAP2 POP JUMPDEST PUSH1 0x1 DUP2 PUSH2 0x17D SWAP2 SWAP1 PUSH2 0x49F JUMP JUMPDEST SWAP1 POP PUSH2 0x146 JUMP JUMPDEST POP DUP1 SWAP2 POP POP SWAP2 SWAP1 POP JUMP JUMPDEST PUSH1 0x0 PUSH1 0x2 DUP3 SUB PUSH2 0x1A1 JUMPI PUSH1 0x1 SWAP1 POP PUSH2 0x218 JUMP JUMPDEST PUSH1 0x1 DUP3 GT ISZERO DUP1 PUSH2 0x1BD JUMPI POP PUSH1 0x0 PUSH1 0x2 DUP4 PUSH2 0x1BB SWAP2 SWAP1 PUSH2 0x524 JUMP JUMPDEST EQ JUMPDEST ISZERO PUSH2 0x1CB JUMPI PUSH1 0x0 SWAP1 POP PUSH2 0x218 JUMP JUMPDEST PUSH1 0x0 PUSH1 0x3 SWAP1 POP JUMPDEST PUSH2 0x1DB DUP4 PUSH2 0x2A8 JUMP JUMPDEST DUP2 GT PUSH2 0x212 JUMPI PUSH1 0x0 DUP2 DUP5 PUSH2 0x1EF SWAP2 SWAP1 PUSH2 0x524 JUMP JUMPDEST SUB PUSH2 0x1FE JUMPI PUSH1 0x0 SWAP2 POP POP PUSH2 0x218 JUMP JUMPDEST PUSH1 0x2 DUP2 PUSH2 0x20B SWAP2 SWAP1 PUSH2 0x49F JUMP JUMPDEST SWAP1 POP PUSH2 0x1D2 JUMP JUMPDEST POP PUSH1 0x1 SWAP1 POP JUMPDEST SWAP2 SWAP1 POP JUMP JUMPDEST PUSH1 0x0 PUSH1 0x2 DUP3 SUB PUSH2 0x230 JUMPI PUSH1 0x1 SWAP1 POP PUSH2 0x2A3 JUMP JUMPDEST PUSH1 0x0 PUSH1 0x1 DUP4 PUSH1 0x2 PUSH2 0x241 SWAP2 SWAP1 PUSH2 0x688 JUMP JUMPDEST PUSH2 0x24B SWAP2 SWAP1 PUSH2 0x6D3 JUMP JUMPDEST SWAP1 POP PUSH1 0x0 PUSH1 0x4 SWAP1 POP PUSH1 0x0 PUSH1 0x3 SWAP1 POP JUMPDEST DUP5 DUP2 GT PUSH2 0x299 JUMPI DUP3 PUSH1 0x2 DUP4 DUP5 PUSH2 0x270 SWAP2 SWAP1 PUSH2 0x707 JUMP JUMPDEST PUSH2 0x27A SWAP2 SWAP1 PUSH2 0x6D3 JUMP JUMPDEST PUSH2 0x284 SWAP2 SWAP1 PUSH2 0x524 JUMP JUMPDEST SWAP2 POP DUP1 DUP1 PUSH2 0x291 SWAP1 PUSH2 0x761 JUMP JUMPDEST SWAP2 POP POP PUSH2 0x25A JUMP JUMPDEST POP PUSH1 0x0 DUP2 EQ SWAP3 POP POP POP JUMPDEST SWAP2 SWAP1 POP JUMP JUMPDEST PUSH1 0x0 DUP1 PUSH1 0x2 PUSH1 0x1 DUP5 PUSH2 0x2BA SWAP2 SWAP1 PUSH2 0x49F JUMP JUMPDEST PUSH2 0x2C4 SWAP2 SWAP1 PUSH2 0x7A9 JUMP JUMPDEST SWAP1 POP DUP3 SWAP2 POP JUMPDEST DUP2 DUP2 LT ISZERO PUSH2 0x2FF JUMPI DUP1 SWAP2 POP PUSH1 0x2 DUP2 DUP3 DUP6 PUSH2 0x2E4 SWAP2 SWAP1 PUSH2 0x7A9 JUMP JUMPDEST PUSH2 0x2EE SWAP2 SWAP1 PUSH2 0x49F JUMP JUMPDEST PUSH2 0x2F8 SWAP2 SWAP1 PUSH2 0x7A9 JUMP JUMPDEST SWAP1 POP PUSH2 0x2CA JUMP JUMPDEST POP SWAP2 SWAP1 POP JUMP JUMPDEST PUSH1 0x0 PUSH20 0xFFFFFFFFFFFFFFFFFFFFFFFFFFFFFFFFFFFFFFFF DUP3 AND SWAP1 POP SWAP2 SWAP1 POP JUMP JUMPDEST PUSH1 0x0 PUSH2 0x330 DUP3 PUSH2 0x305 JUMP JUMPDEST SWAP1 POP SWAP2 SWAP1 POP JUMP JUMPDEST PUSH2 0x340 DUP2 PUSH2 0x325 JUMP JUMPDEST DUP3 MSTORE POP POP JUMP JUMPDEST PUSH1 0x0 PUSH1 0x20 DUP3 ADD SWAP1 POP PUSH2 0x35B PUSH1 0x0 DUP4 ADD DUP5 PUSH2 0x337 JUMP JUMPDEST SWAP3 SWAP2 POP POP JUMP JUMPDEST PUSH1 0x0 DUP1 REVERT JUMPDEST PUSH1 0x0 DUP2 SWAP1 POP SWAP2 SWAP1 POP JUMP JUMPDEST PUSH2 0x379 DUP2 PUSH2 0x366 JUMP JUMPDEST DUP2 EQ PUSH2 0x384 JUMPI PUSH1 0x0 DUP1 REVERT JUMPDEST POP JUMP JUMPDEST PUSH1 0x0 DUP2 CALLDATALOAD SWAP1 POP PUSH2 0x396 DUP2 PUSH2 0x370 JUMP JUMPDEST SWAP3 SWAP2 POP POP JUMP JUMPDEST PUSH1 0x0 PUSH1 0x20 DUP3 DUP5 SUB SLT ISZERO PUSH2 0x3B2 JUMPI PUSH2 0x3B1 PUSH2 0x361 JUMP JUMPDEST JUMPDEST PUSH1 0x0 PUSH2 0x3C0 DUP5 DUP3 DUP6 ADD PUSH2 0x387 JUMP JUMPDEST SWAP2 POP POP SWAP3 SWAP2 POP POP JUMP JUMPDEST PUSH2 0x3D2 DUP2 PUSH2 0x366 JUMP JUMPDEST DUP3 MSTORE POP POP JUMP JUMPDEST PUSH1 0x0 PUSH1 0x20 DUP3 ADD SWAP1 POP PUSH2 0x3ED PUSH1 0x0 DUP4 ADD DUP5 PUSH2 0x3C9 JUMP JUMPDEST SWAP3 SWAP2 POP POP JUMP JUMPDEST PUSH1 0x0 DUP3 DUP3 MSTORE PUSH1 0x20 DUP3 ADD SWAP1 POP SWAP3 SWAP2 POP POP JUMP JUMPDEST PUSH32 0x556E617574686F72697A65640000000000000000000000000000000000000000 PUSH1 0x0 DUP3 ADD MSTORE POP JUMP JUMPDEST PUSH1 0x0 PUSH2 0x43A PUSH1 0xC DUP4 PUSH2 0x3F3 JUMP JUMPDEST SWAP2 POP PUSH2 0x445 DUP3 PUSH2 0x404 JUMP JUMPDEST PUSH1 0x20 DUP3 ADD SWAP1 POP SWAP2 SWAP1 POP JUMP JUMPDEST PUSH1 0x0 PUSH1 0x20 DUP3 ADD SWAP1 POP DUP2 DUP2 SUB PUSH1 0x0 DUP4 ADD MSTORE PUSH2 0x469 DUP2 PUSH2 0x42D JUMP JUMPDEST SWAP1 POP SWAP2 SWAP1 POP JUMP JUMPDEST PUSH32 0x4E487B7100000000000000000000000000000000000000000000000000000000 PUSH1 0x0 MSTORE PUSH1 0x11 PUSH1 0x4 MSTORE PUSH1 0x24 PUSH1 0x0 REVERT JUMPDEST PUSH1 0x0 PUSH2 0x4AA DUP3 PUSH2 0x366 JUMP JUMPDEST SWAP2 POP PUSH2 0x4B5 DUP4 PUSH2 0x366 JUMP JUMPDEST SWAP3 POP DUP3 PUSH32 0xFFFFFFFFFFFFFFFFFFFFFFFFFFFFFFFFFFFFFFFFFFFFFFFFFFFFFFFFFFFFFFFF SUB DUP3 GT ISZERO PUSH2 0x4EA JUMPI PUSH2 0x4E9 PUSH2 0x470 JUMP JUMPDEST JUMPDEST DUP3 DUP3 ADD SWAP1 POP SWAP3 SWAP2 POP POP JUMP JUMPDEST PUSH32 0x4E487B7100000000000000000000000000000000000000000000000000000000 PUSH1 0x0 MSTORE PUSH1 0x12 PUSH1 0x4 MSTORE PUSH1 0x24 PUSH1 0x0 REVERT JUMPDEST PUSH1 0x0 PUSH2 0x52F DUP3 PUSH2 0x366 JUMP JUMPDEST SWAP2 POP PUSH2 0x53A DUP4 PUSH2 0x366 JUMP JUMPDEST SWAP3 POP DUP3 PUSH2 0x54A JUMPI PUSH2 0x549 PUSH2 0x4F5 JUMP JUMPDEST JUMPDEST DUP3 DUP3 MOD SWAP1 POP SWAP3 SWAP2 POP POP JUMP JUMPDEST PUSH1 0x0 DUP2 PUSH1 0x1 SHR SWAP1 POP SWAP2 SWAP1 POP JUMP JUMPDEST PUSH1 0x0 DUP1 DUP3 SWAP2 POP DUP4 SWAP1 POP JUMPDEST PUSH1 0x1 DUP6 GT ISZERO PUSH2 0x5AC JUMPI DUP1 DUP7 DIV DUP2 GT ISZERO PUSH2 0x588 JUMPI PUSH2 0x587 PUSH2 0x470 JUMP JUMPDEST JUMPDEST PUSH1 0x1 DUP6 AND ISZERO PUSH2 0x597 JUMPI DUP1 DUP3 MUL SWAP2 POP JUMPDEST DUP1 DUP2 MUL SWAP1 POP PUSH2 0x5A5 DUP6 PUSH2 0x555 JUMP JUMPDEST SWAP5 POP PUSH2 0x56C JUMP JUMPDEST SWAP5 POP SWAP5 SWAP3 POP POP POP JUMP JUMPDEST PUSH1 0x0 DUP3 PUSH2 0x5C5 JUMPI PUSH1 0x1 SWAP1 POP PUSH2 0x681 JUMP JUMPDEST DUP2 PUSH2 0x5D3 JUMPI PUSH1 0x0 SWAP1 POP PUSH2 0x681 JUMP JUMPDEST DUP2 PUSH1 0x1 DUP2 EQ PUSH2 0x5E9 JUMPI PUSH1 0x2 DUP2 EQ PUSH2 0x5F3 JUMPI PUSH2 0x622 JUMP JUMPDEST PUSH1 0x1 SWAP2 POP POP PUSH2 0x681 JUMP JUMPDEST PUSH1 0xFF DUP5 GT ISZERO PUSH2 0x605 JUMPI PUSH2 0x604 PUSH2 0x470 JUMP JUMPDEST JUMPDEST DUP4 PUSH1 0x2 EXP SWAP2 POP DUP5 DUP3 GT ISZERO PUSH2 0x61C JUMPI PUSH2 0x61B PUSH2 0x470 JUMP JUMPDEST JUMPDEST POP PUSH2 0x681 JUMP JUMPDEST POP PUSH1 0x20 DUP4 LT PUSH2 0x133 DUP4 LT AND PUSH1 0x4E DUP5 LT PUSH1 0xB DUP5 LT AND OR ISZERO PUSH2 0x657 JUMPI DUP3 DUP3 EXP SWAP1 POP DUP4 DUP2 GT ISZERO PUSH2 0x652 JUMPI PUSH2 0x651 PUSH2 0x470 JUMP JUMPDEST JUMPDEST PUSH2 0x681 JUMP JUMPDEST PUSH2 0x664 DUP5 DUP5 DUP5 PUSH1 0x1 PUSH2 0x562 JUMP JUMPDEST SWAP3 POP SWAP1 POP DUP2 DUP5 DIV DUP2 GT ISZERO PUSH2 0x67B JUMPI PUSH2 0x67A PUSH2 0x470 JUMP JUMPDEST JUMPDEST DUP2 DUP2 MUL SWAP1 POP JUMPDEST SWAP4 SWAP3 POP POP POP JUMP JUMPDEST PUSH1 0x0 PUSH2 0x693 DUP3 PUSH2 0x366 JUMP JUMPDEST SWAP2 POP PUSH2 0x69E DUP4 PUSH2 0x366 JUMP JUMPDEST SWAP3 POP PUSH2 0x6CB PUSH32 0xFFFFFFFFFFFFFFFFFFFFFFFFFFFFFFFFFFFFFFFFFFFFFFFFFFFFFFFFFFFFFFFF DUP5 DUP5 PUSH2 0x5B5 JUMP JUMPDEST SWAP1 POP SWAP3 SWAP2 POP POP JUMP JUMPDEST PUSH1 0x0 PUSH2 0x6DE DUP3 PUSH2 0x366 JUMP JUMPDEST SWAP2 POP PUSH2 0x6E9 DUP4 PUSH2 0x366 JUMP JUMPDEST SWAP3 POP DUP3 DUP3 LT ISZERO PUSH2 0x6FC JUMPI PUSH2 0x6FB PUSH2 0x470 JUMP JUMPDEST JUMPDEST DUP3 DUP3 SUB SWAP1 POP SWAP3 SWAP2 POP POP JUMP JUMPDEST PUSH1 0x0 PUSH2 0x712 DUP3 PUSH2 0x366 JUMP JUMPDEST SWAP2 POP PUSH2 0x71D DUP4 PUSH2 0x366 JUMP JUMPDEST SWAP3 POP DUP2 PUSH32 0xFFFFFFFFFFFFFFFFFFFFFFFFFFFFFFFFFFFFFFFFFFFFFFFFFFFFFFFFFFFFFFFF DIV DUP4 GT DUP3 ISZERO ISZERO AND ISZERO PUSH2 0x756 JUMPI PUSH2 0x755 PUSH2 0x470 JUMP JUMPDEST JUMPDEST DUP3 DUP3 MUL SWAP1 POP SWAP3 SWAP2 POP POP JUMP JUMPDEST PUSH1 0x0 PUSH2 0x76C DUP3 PUSH2 0x366 JUMP JUMPDEST SWAP2 POP PUSH32 0xFFFFFFFFFFFFFFFFFFFFFFFFFFFFFFFFFFFFFFFFFFFFFFFFFFFFFFFFFFFFFFFF DUP3 SUB PUSH2 0x79E JUMPI PUSH2 0x79D PUSH2 0x470 JUMP JUMPDEST JUMPDEST PUSH1 0x1 DUP3 ADD SWAP1 POP SWAP2 SWAP1 POP JUMP JUMPDEST PUSH1 0x0 PUSH2 0x7B4 DUP3 PUSH2 0x366 JUMP JUMPDEST SWAP2 POP PUSH2 0x7BF DUP4 PUSH2 0x366 JUMP JUMPDEST SWAP3 POP DUP3 PUSH2 0x7CF JUMPI PUSH2 0x7CE PUSH2 0x4F5 JUMP JUMPDEST JUMPDEST DUP3 DUP3 DIV SWAP1 POP SWAP3 SWAP2 POP POP JUMP INVALID LOG2 PUSH5 0x6970667358 0x22 SLT KECCAK256 0xEB 0xBC 0xD 0x5E 0x24 0x5C BALANCE CALLDATACOPY PUSH25 0xB2136ECCE64212E6E8D7E29BAA83E982EA499462294C496473 PUSH16 0x6C634300080D00330000000000000000 "
    }
  }
}